:1000000080312828013008007E14803120007F08CC
:10001000A9000B1F23282100101C1B282000101CE6
:100020001B28210034083504031D192880314D2078
:100030008031200010102100921F23282000921FE1
:1000400023288A31AB2220002908FF007E100900F6
:1000500080312A28893114218031E500EE30840076
:100060008B308500CB30860000308700223089310C
:100070003721803146308400003085001F308931BF
:1000800031218031A0308400003085002B3089314F
:1000900031217E1020008431042C2000A601A7010C
:1000A00005302000A2009E30890B5428A20B542852
:1000B000000020000C1908000A302000A2003B308C
:1000C000890B6028A20B602820000C1D08000A3054
:1000D0002000A2003B30890B6B28A20B6B2820006C
:1000E0000C19080013302000A2007730890B762805
:1000F000A20B762800322000A8010C302802031839
:10010000E3282808031D8C2803100C1D031400305D
:1001100003180130DA00D128063028020318B1286C
:100120000C1DA2280130A2002803FF3A053E890ACF
:100130009A28A235890B99282208FF3AA3002308A0
:10014000A605D1280130A2002803FF3A053E890AFE
:10015000AA28A235890BA9282208A3002308A604EF
:10016000D1280C1DC3280130A2002803FF3A0B3E02
:10017000890ABB28A235890BBA282208FF3AA300B6
:100180002308A705D1280130A2002803FF3A0B3E1F
:10019000890ACB28A235890BCA282208A300230884
:1001A000A70413302000A2007730890BD528A20BBA
:1001B000D528003201302000A2002208A8070C3008
:1001C0002802031C81285A08A200A3012208CC009F
:1001D0002308CD000A30F9000030FA000A30F000A0
:1001E0000030F1002608A200A3012208F200230833
:1001F000F3008F31452780317108FC007008FB0047
:100200008D318E25803179082000A400A5012408B5
:10021000CA002508CB000A30F9000030FA00260891
:10022000A200A3012208FB002308FC008D318E25CB
:10023000803179082000A400A5012408C800250801
:10024000C9000A30F9000030FA000A30F00000302E
:10025000F1002708A200A3012208F2002308F300FE
:100260008F31452780317108FC007008FB008D310B
:100270008E25803179082000A400A5012408C6003D
:100280002508C7000A30F9000030FA002708A2004C
:10029000A3012208FB002308FC008D318E2580314C
:1002A00079082000A400A50124082100AC0020004A
:1002B00025082100AD000130B4000030B5002E0348
:1002C0002F04031D0800AE01AF010030F000F10063
:1002D00020004A08A2002208F2008B3174238031EA
:1002E0001F302000A3007130A2001E30890B762938
:1002F000A20B7629A30B762900000130F000003014
:10030000F10020004808A2002208F2008B3174237B
:1003100080311F302000A3007130A2001E30890BF5
:100320008F29A20B8F29A30B8F2900000030F0002A
:10033000F1008931B22180312000A200A3012208FE
:10034000D0002308D1001B302000A3006230A2009F
:100350002B30890BA929A20BA929A30BA9290130AC
:10036000F0000030F1008931B22180312000A2007C
:10037000A3012208CE002308CF001B302000A300D9
:100380006230A2002B30890BC329A20BC329A30B17
:10039000C32956308931442180311B302000A3000D
:1003A0006230A2002B30890BD329A20BD329A30BD7
:1003B000D3290800210034033504031D0800200060
:1003C0004C084D04031D152A51084B06031DEA294C
:1003D00050084A06031D152A4F084906031DF22935
:1003E0004E084806031D152A46084704031D152A12
:1003F000083021002C062D04031D152A20005D085D
:10040000031D042A0130052A0030BA003A08DD0035
:100410005D03031D0D2A01300E2A0030BA003A0890
:10042000DE002100B401B501080020004C084D0495
:10043000031D4F2A51084B06031D202A50084A0667
:10044000031D4F2A4F084906031D282A4E08480657
:10045000031D4F2A46084704031D4F2A0930210077
:100460002C062D04031D4F2A20005B08031D3A2A89
:1004700001303B2A0030BA003A08DB005B03031D61
:10048000462A793089316C2181314B2A7A30893181
:100490006C2122008E102100B401B501080020005B
:1004A0004C084D04031DB32A51084B06031D5A2A5C
:1004B00050084A06031DB32A4F084906031D622A45
:1004C0004E084806031DB32ABD013D08031DB32A8B
:1004D0000930BA003A08AA003D088A314E2281311B
:1004E000DB3E2000BB003B08BC003C08053E86000C
:1004F0008701403FBA00413FBB0047083B06031D50
:10050000832A46083A06031DAB2A3C08073E8600AC
:100510008701403FBA00413FBB0021002D08200069
:100520003B06031D972A21002C0820003A06031DD4
:10053000AB2A3C08043E860087010108031DAB2A54
:100540003D08BA003A08B4003C088D315725210017
:10055000B401B501080001302000BA003A08BD0717
:100560003D080319682A2100B401B50108002100E3
:100570009D18B72A1C08F7001B08F6002000621817
:1005800008006008031DD32A4B2B210054088A0061
:1005900053080A008231EC2A210052088A005108CF
:1005A0000A008231EC2A200060080139F400F501CC
:1005B00075088400013004020318EC2A88310435E0
:1005C000043E820074088400023004020318EC2AFE
:1005D00088310435003E82000930F4007408F000D0
:1005E000200061088A313D228231053EE43E8600CA
:1005F00087010108200060060319482B601C292B85
:100600007609F4007709F500F40A0319F50A74086D
:10061000003EF6000430753DF7007609F4007709D6
:10062000F500F40A0319F50A210032087407F000F6
:100630003308753DF1008931D621823170082000E0
:10064000D2077108D33D77082100B3007608B200C5
:10065000432B7609F4007709F500F40A0319F50A2B
:10066000210030087407F0003108753DF100893130
:10067000D62170082000D2077108D33D77082100E9
:10068000B1007608B00076082000D4077708D53D81
:100690000130E00208007608D4077708D53D7609D6
:1006A000F4007709F500F40A0319F50A210030086F
:1006B0007407F0003108753DF1008931D6217008CA
:1006C0002000D2077108D33D621408002000B30057
:1006D000330803197D2B5908031D7D2BD901D90A35
:1006E00021002708A3002608A2002508A10024084D
:1006F000A0002000D801D701D60133080319080053
:100700005903031D0800210024082000AB0021002C
:1007100025082000AC00210026082000AD002100A3
:1007200027082000AE00210020092000AF00210092
:1007300021092000B000210022092000B100210081
:1007400023092000B200AF0A0319B00A0319B10A45
:100750000319B20A2F08AB073008AC3D3108AD3D94
:100760003208AE3D2E08B7002D08B6002C08B500A3
:100770002B08B4005808031DD52B3708031DC92BBF
:100780003608031DC92B203034024E30353B031C84
:10079000D52B01302100AE000030AF00553089313B
:1007A0006C2183312000D801D80A5708031DEE2B95
:1007B0003708031DE42B3608031DE42B30303402C8
:1007C0007530353B031CEE2B2100AE01AF015630D6
:1007D00089316C2183312000D701D70A5608031DC7
:1007E00008003708031DFD2B3608031DFD2B503074
:1007F0003402C330353B031C0800543089316C216E
:100800002000D601D60A08008A31FF2284318A31BD
:100810008522843189311521843189313D2184310A
:100820008B170B1700302000AA00AB008931F22192
:1008300084312200A700A80127082000D000220050
:1008400028082000D1001B302200A8006230A70039
:100850002B30890B292CA70B292CA80B292C013014
:100860002000AA000030AB008931F221843122003F
:10087000A700A80127082000CE0022002808200099
:10088000CF001B302200A8006230A7002B30890B5C
:10089000472CA70B472CA80B472C512C8131DA2170
:1008A00084318C31A5248431863146268431200060
:1008B0005E0303194E2C00308B3114238431220047
:1008C000A7002708A9002908833166238431200066
:1008D0005C03031D8A2C22002908031D8A2C20009A
:1008E000DC015B08031D762C0130772C00302200E0
:1008F000A70027082000DB005B03031D842C793050
:1009000089316C2184318A2C7A3089316C2184318F
:1009100022008E108D31D42584318131DA21843149
:100920000B302200A7006230890B942CA70B942C6B
:100930000000512C20003708093E8600870101087D
:10094000803AB80037080E3E860087010103FF3A5F
:10095000803AB8020318D32C37080A3E8600870174
:100960000130810741310318810A37080A3E8600A9
:100970008701403FB800413FB900003039024130A3
:1009800003193802031C102D37080A3E8600870120
:100990000030C03FC13F37088600870101088C3115
:1009A000FB248431102D20003708093E8600870182
:1009B0000108B800B901B81BB90337080E3E86001C
:1009C00087013908803A803C031DE82C3808010271
:1009D0000318082D02302000B8003708023E8600B8
:1009E00087013808810037080A3E860087010030F9
:1009F000C03FC13F3708860087010108B8003808AA
:100A0000AA0021005A088A0059080A008531102DD1
:100A1000200037080A3E860087010030C03FC13FF2
:100A2000200037080C3E86008701013081074131E4
:100A30000318810A37080C3E860087011600403AE9
:100A4000B8001600B804031D080037080C3E8600E5
:100A500087010030C03FC13F37088531BE250800FF
:100A60002000B4003408053E86008701403FAA00FC
:100A7000413FAB00423FAC00433FAD000430AD36D8
:100A8000AC0CAB0CAA0C890B3F2DAA09AB09AC0925
:100A9000AD09AA0A0319AB0A0319AC0A0319AD0A76
:100AA0003408033E86008701403FAE00413FAF005F
:100AB0002E08B0002F08B100B201B3013008AA0718
:100AC0003108AB3D3208AC3D3308AD3D2D08B800D0
:100AD0002C08B7002B08B6002A08B5003508AA0074
:100AE0003608AB003708AC003808AD0034080F3EBC
:100AF00086008701010A802DAD37AC0CAB0CAA0C27
:100B0000890B7C2D2D08B8002C08B7002B08B600E7
:100B10002A08B500B81BA12D3808031D992D3708E8
:100B2000031D992D3608031D992D80303502031CB5
:100B3000A12D0030B8000030B7000030B6007F3083
:100B4000B500B81FB52D80303502FF30363BFF3081
:100B5000373BFF30383B0318B52DFF30B800FF306E
:100B6000B700FF30B6008030B5003508AA00340861
:100B7000093E860087012A08810008002000B00095
:100B80008B1F052E8B133008053E86008701403FE2
:100B9000AA00413FAB00423FAC00433FAD000430F0
:100BA000AD36AC0CAB0CAA0C890BD02D3008053E31
:100BB000860087012A08810241312B08813B41319F
:100BC0002C08813B41312D08813B7D313008033EAB
:100BD00086008701403FAA00413FAB002A08AC00D5
:100BE0002B08AD00AE01AF013008053E860087013D
:100BF0002C08810741312D08813D41312E08813D6E
:100C000041312F08813D8B1708003008053E8600D2
:100C10008701403FAA00413FAB00423FAC00433F49
:100C2000AD000430AD36AC0CAB0CAA0C890B122E07
:100C30003008053E860087012A08810241312B08D1
:100C4000813B41312C08813B41312D08813B7D3175
:100C50003008033E86008701403FAA00413FAB00B9
:100C60002A08AC002B08AD00AE01AF013008053EEC
:100C7000860087012C08810741312D08813D4131D3
:100C80002E08813D41312F08813D08008931262100
:100C90008631003A031908008931CA2186312000C3
:100CA000B0003008B300B4013408031D0800093057
:100CB000B0003008AA0034088A314E228631013E45
:100CC000DB3E860087010108200033060319792ED8
:100CD0000930B0003008AA0034088A314E2286312B
:100CE000023EDB3E86008701010820003306031D1B
:100CF000C22E33088B319023863109302000B0009A
:100D00003008AA0034088A314E228631013EDB3E8B
:100D100086008701010820003306031D912E013053
:100D2000922E0030B1000930B2003208AA00340817
:100D30008A314E228631033EDB3E86008701200049
:100D4000310881000930B0003008AA0034088A3127
:100D50004E228631033EDB3E8600870101082000DB
:100D6000B1003108AE000930B2003208AA003408E0
:100D70008A314E228631DB3E8600870101088A31A6
:100D80009822080001302000B0003008B407542E2B
:100D90002000B1000B0E890C890C0139AC000B0D41
:100DA0000B0D01392C05031DD72EFE300800B001B4
:100DB00021001D082000AC002C08AD0021001E08F9
:100DC0002000AC002C08AE0021001F082000AC0061
:100DD0002C08AF0089317C218631200031088A310E
:100DE000EA22863120003108860087010108AC0024
:100DF0002C08E100310886008701453FE000D4015E
:100E0000D5016210D201D301B730AA000230AB0085
:100E10008931852186312000650889312B21863171
:100E20008931152186312000E210111F6218192F17
:100E3000152F1113621C152F8931182186312000BE
:100E40002D0821009D0020002E0821009E0020007A
:100E50002F0821009F002000E21C322FFA30AC0046
:100E60002C08B00030080800200037080A3E860031
:100E70008701403FB800413FB90003303902E830F4
:100E800003193802031C5A2F37088600870101080E
:100E90008C31FB2487312000370886008701010848
:100EA000B8003808AA00210058088A0057080A002C
:100EB0008731080020003708093E860087010108B5
:100EC000803AB80037080E3E8600870137080E3E8C
:100ED000840085010008B9003708103E84008501B0
:100EE000000A732FB936890B722F3908FF3A013E79
:100EF0000107803AB802031808003708023E86004E
:100F000087018101810A37080A3E86008701003087
:100F1000C03FC13F37080C3E86008701FF30C03F0D
:100F2000FB30C13F3708860087010108B800380848
:100F3000AA00210058088A0057080A0087310800D3
:100F4000200037080A3E86008701403FB800413F35
:100F5000B900003039020930031938020318B52FDF
:100F600037088C31CF248731BA2F200037088531DC
:100F7000BE258731200037080A3E860087010130F0
:100F8000810741310318810A37080A3E860087012C
:100F9000403FB800413FB90000303902103003191A
:100FA0003802031C08003708053E86008701403FD1
:100FB000B800413FB900423FBA00433FBB00043094
:100FC000BB36BA0CB90CB80C890BE02F3708033EBE
:100FD000860087013808C03F3908C13F3708023E04
:100FE000860087018101810A37080A3E8600870151
:100FF0000030C03FC13F08001630210097000800B4
:0C1000008231C52A8231CC2A8231E22ADA
:101220000800080008000800C83428001E1508003F
:1012300028001E11080089311E210800BA308C31A7
:10124000102408002000AA012A0808002000110E1E
:10125000890C013908002000AA002A0828009D00F6
:101260000800640080010131890B32290034FE003E
:1012700012001E00FE0B382900340B102000101045
:10128000210010148B170800F0002000111E4529C2
:10129000700823009A0008002000AA002A08083ECF
:1012A00086008701811008002000AA002A08083E55
:1012B00086008701011508002000AA002A08083EC0
:1012C00086008701011108002000AA002A08083EB4
:1012D00086008701811408002000AA00111E6E29D3
:1012E0002A0823009A00080032009101920193011C
:1012F0009401950196010800FC3028009E0521000C
:101300009D01A0309E009F01080020002B082100B5
:10131000EE0020002A082100ED00080020002B0824
:101320002200A10020002A082200A00008002000BE
:101330002B082200A50020002A082200A400080093
:1013400020002B082200A30020002A082200A2006F
:1013500008006030320099009B019D0107309F001A
:101360009E01080071083100920070089100151765
:101370001514000000003100130808008A311F22F4
:1013800089318B31AC2389318A31D5228931893138
:101390007C2108002000911ECA292100B9012300E8
:1013A0009D1CD4291D121D1619080800F11F0800E4
:1013B0007009F2007109F300F20A0319F30A7208C6
:1013C000F0007308F10008002000AA002A080319A1
:1013D000F0292A08083E8600870101080139080023
:1013E0000030080020002B083100920020002A085D
:1013F000310091001517151400000000310013088A
:1014000008002000B5008B1F0B2A8B1335088E3186
:101410001A268B170800200035088E311A2608007E
:101420002000C0014008031D080040088E31AD2691
:101430008A3101302000BF003F08C007122A200077
:10144000B3013308031D080033088A3172228A3140
:1014500001302000B2003208B307212A2000AB1F60
:1014600008002A09AC002B09AD00AC0A0319AD0A2B
:101470002C08AA002D08AB000800F200F301721C32
:10148000452A7008F1007108F3070310F00D0310EE
:10149000F20C7208031D3F2A730808002000AD00FB
:1014A000AC012D1C572A2A08AB002B08AC070310EF
:1014B000AA0D0310AD0C2D08031D512A2C0808009D
:1014C0002000AF002F08031D08000930AE002E08D1
:1014D000AA002F088A314E22083EE43E860087018A
:1014E000011408002000B10031088A3160228A31DD
:1014F00009302000B0003008AA0031088A314E229D
:101500008A31E43E89314C2108007D3028009D005D
:101510009C012000921321009217123028009E0097
:1015200010302000AA000930AB0089318521080065
:101530002000AF00A42A2E080319A12A22008E142D
:10154000080022008E10080020002F08003A03191E
:101550009B2AAA2A08002000921301302100A40728
:101560000030A53D0030A63D0030A73D6D086E045B
:10157000031908006E088A006D080A008A31080005
:101580002000AF002F08031DD32A0930AE002E081B
:10159000AA002F088A314E22083EE43E86008701C9
:1015A000010C0139080000300800E4302000AB00D5
:1015B0002B08AC00E430AB002C082B02031C080005
:1015C0002C0889314C218A3109302000AB002B08CE
:1015D000AC07DA2A2000AA002A0A86008701403FC9
:1015E0002100D300413FD40020002A08033E86009A
:1015F0008701403F2100D100413FD20008008931DE
:1016000074218A318D3128258A318931A9218A3185
:101610008731FC278A318A3185228A318C31342402
:101620008A318931BE2108002000AA002A08031D42
:10163000282B2A0EF0392A07023EBA3E860087017F
:1016400002300106031D262B01300800003008007F
:10165000003008002000AA008B1F392B8B132A08AA
:10166000063E860087015408C03F5508C13F8B17CE
:1016700008002A08063E860087015408C03F550826
:10168000C13F08002000B1003108031D582B09306C
:10169000B0003008AA0031088A314E22063EE43EEE
:1016A00086008701403F2000AE00413FAF000800A8
:1016B000AE01AF0108002100EF016F08031D722B7E
:1016C0006F088E3163268B31003A0319692B003085
:1016D000080001302000C50045082100EF076F0811
:1016E0000319602B0130080000308B1B0130F30020
:1016F000710831009200700891007208930015176C
:1017000015158B1355309600AA3096009514951830
:10171000872B1511730C031C8B1303188B170800F0
:101720002000AA009C2B22008E14080022008E109C
:10173000080022008E10080020002A08613A0319D0
:10174000932B033A0319962B1B3A0319992B033A4F
:101750000319992BAB2B0800BA30860087010030A3
:1017600084009030850011302000AD002D08031951
:10177000BD2B12001E00AD0BB92B2000AE012E08B0
:10178000031D08002E088C31FB248B310130200012
:10179000AD002D08AE07BF2B2000B3000930B0000C
:1017A0003008AA0033088A314E228B31033EDB3EDB
:1017B0008600870101082000B1003108AE00093021
:1017C000B2003208AA0033088A314E228B31DB3E48
:1017D0008600870101088A3198220800A034073466
:1017E0009A340434343407347F340C3459340C3490
:1017F0001334093411340934113409340034613498
:1018000062340034003401340034053400340034D0
:1018100059340C347F340C34203400340034003418
:101820002000AC002C08023E860087010230010631
:10183000031D08002C080A3E86008701013081073D
:1018400041310318810A2C080A3E860087011600E0
:101850000104031D08002C080A3E86008701FF30A2
:10186000C03FFF30C13F0800083023009F00903088
:101870009D0024309E0040309B0003309C000030CF
:101880002000AA000030AB00893197218C31003054
:101890002000AA000030AB008931A0218C3100303B
:1018A0002000AA000030AB0089318E212100B9014F
:1018B000080022000E15210049309D000530890BDB
:1018C0005F2C000071309D0022000E1121008E302F
:1018D0008400003085000C308600013087004930DC
:1018E00000159D00811600320032003200322100C6
:1018F0009D140032000022000E1500110800220085
:101900000E11210049309D000530890B852C000007
:1019100071309D0022000E1521008E3084000030B1
:1019200085000C30860001308700493000159D008D
:101930008112003200320032003221009D14003248
:10194000000022000E110011080020006308031996
:10195000AE2C8931BE218C312000E301E401E40A80
:1019600064080319CD2C8B315B238C31003A031DA5
:10197000BB2C003008008A3110228C3189312221A1
:101980008C312200A60026082000E4008A31D522EE
:101990008C3189311B210130080000300800200003
:1019A000B600360A8600870101088B3142238C314C
:1019B00020002E08B2002F08B300B401B50136088C
:1019C000053E860087013208C03F3308C13F340816
:1019D000C23F3508C33F3608053E86008701043004
:1019E00081354131810D4131810D4131810D7D3193
:1019F000890BF02C08002000AB002B0EF0392B07D0
:101A0000BA3EAA002A08AC002C08023E86008701D4
:101A100081012C08053E860087010030C03F003060
:101A2000C13FC23FC33F2C080A3E860087010030F9
:101A3000C03FC13F2C080C3E860087010030C03FEC
:101A4000C13F2C0A86008701010889311221080054
:101A500022008C018D018E01173021008C00F030A6
:101A60008D00E9308E00DB3023008E00F0308D00D9
:101A700013308C0024008D018C018E0125008C0117
:101A80008D018E01373026008C00F0308D00FF3044
:101A90008E003F3027008C00F0308D00FF308E002C
:101AA00015303C00A40014303D00A40008002000C4
:101AB000B9003908033E860087010108031D622D25
:101AC0000130632D0030B5003908033E86008701E0
:101AD000350881003908033E860087010108031D8F
:101AE000742D3908023E752D390A860087010108D8
:101AF000B500B6013508B7003608B8003708893197
:101B00006C218D31200034088B31CC232000390822
:101B1000043E860087018101810A08002000A1019E
:101B2000FC1F992DFB09FC09FB0A0319FC0AA10102
:101B3000A10AFA1FA02DF909FA09F90A0319FA0AEC
:101B400079087A040319C72DA001A00AFA1BB22D47
:101B50000130F935FA0D890BA92D0130FD007D0802
:101B6000A007A62D7A087C02031DB82D79087B02F8
:101B7000031CBE2D7908FB027A08FC3B0130FA36C3
:101B8000F90C890BBF2D0130A002031DB22D2108D5
:101B90000319CF2DFB09FC09FB0A0319FC0A7C0879
:101BA000FA007B08F90008002000BD013D08031D74
:101BB00008000930BA003A08AA003D088A314E22CE
:101BC0008D31DB3E2000BB003B08BC003C0886009A
:101BD000870101088B3114238D31003A031D0E2E2D
:101BE00020005903031D0E2ED9013C08043E860037
:101BF00087010108031D142E5808031D142E5708D1
:101C0000031D142E5608031D142E3D08BA003A0871
:101C1000B4003C088D3157258D31142E20003C082E
:101C2000043E86008701810101302000BA003A0895
:101C3000BD07D62D2000B4003408023E860087017F
:101C400001080319532E3408033E86008701403FE4
:101C5000B200413FB300B336B20CB336B20C340815
:101C6000033E860087013208810241313308813BFF
:101C70007F31340A8600870101088B31422320001E
:101C80002E08B2002F08B300B336B20CB336B20C34
:101C90003408033E8600870132088107413133084A
:101CA000813D7F310800340A8600870101088B31AD
:101CB000422320003408033E860087012E08C03FDF
:101CC0002F08C13F08002000C2000930C0004008B2
:101CD000AA0042088A314E228E31E43E2000C10023
:101CE0004108C40044088E31F8268E312000C0001F
:101CF0004008C3009B2E44088931E4218E31003A0C
:101D00000319AA2E20005F08031D8A2E44088B3178
:101D10002A238E3120004408893164218E3120002D
:101D20004208C0004008AA00210056088A00550851
:101D30000A008E31AA2E20004308003A03197B2E98
:101D4000FD3A0319AA2E033A0319AA2E013A0319E0
:101D5000AA2EAA2E2000430808002000BD003D0E38
:101D6000F0393D07BA3EBC003C08BE003E0A860082
:101D7000870101088A31C0228E31003A0319080018
:101D800020003E0A860087010108803102208E3142
:101D9000003A0319080020003E088A3101228E31E2
:101DA00020003E08853130258E3120003E08023E5D
:101DB0008600870103300102031CE52E3E088600E1
:101DC000870101088C31FB248E3120003E08BC00C5
:101DD0003C08B7003E08023E860087010135CB3E35
:101DE00086008701413F8A00403F0A008E3108008B
:101DF0002000BF000530BC003C08BE003F08893110
:101E0000E4218E31003A031D0F2F0030080001300D
:101E10002000BE023E08031D0F2FFC3008002000EA
:101E20003F088631C8268E31003A031D072F200057
:101E30003F08063E86008701403FBC00413FBD0091
:101E4000BC09BD09BC0A0319BD0A54083C07AA0015
:101E500055083D3DAB008A312E228E3100302000E6
:101E60002B02653003192A02031C3F2F3F088931DA
:101E700054218E3120003F088F3196270800200022
:101E80003F0889315C2100300800F601F11F4F2F17
:101E9000F009F109F00A0319F10AF601F60AF31F35
:101EA0005A2FF209F309F20A0319F30A0130F40078
:101EB0007408F606F701F801700871040319892FF8
:101EC000F501F50AF11B6E2F0130F035F10D890B8C
:101ED000652F0130F4007408F507622F0130F735E3
:101EE000F80D890B6F2F71087302031D792F70088D
:101EF0007202031C802F7008F2027108F33B771402
:101F00000130F136F00C890B812F0130F502031DF1
:101F10006E2F76080319912FF709F809F70A0319AC
:101F2000F80A7808F1007708F00008002000B400F3
:101F30005308B3005208B200B336B20CB336B20C39
:101F400052083207B5005308333DB6006508B200A9
:101F50003208B9005508B8005408B700BB01053075
:101F60003B020318F62F3B08113E84009030031803
:101F7000013E85000008B2003208E507C83065025E
:101F80000318C62FC830B2003208E5070530B2008A
:101F90003208BA0034088631C8268F31003A031956
:101FA000D92F01302000BA023A08031DCA2FFC3095
:101FB0000800200053083602031DE02F52083502A6
:101FC0000318EE2F5308B6005208B5006508B2009A
:101FD0003208B9005508B8005408B7000130B20003
:101FE0003208BB0705303B02031CB32F3908B2008F
:101FF0003208E5003808D5003708D4000030080062
:102000000034003400340034003400340034003430
:1020100000340034003400340034003428340134F7
:0C202000043403340D340E3414340D3439
:020000040001F9
:08000E00ECFFF3FFFFFFFFFF11
:00000001FF
