:1000000080312228080008007E14803120007F08FB
:10001000A9000B1F1D282E000C1C182821005308B6
:100020005404031D162880319F2080312E000C10AF
:1000300097188D1C1D289131182120002908FF00D8
:100040007E100900803124289F31D5278031E300BC
:100050009F31D6278031E4009F31D7278031E500DA
:10006000C530840090308500E43086000030870081
:100070000030FF000B3091310C218031F2308400D0
:100080009F30850065308600013087000030FF001A
:10009000063091310C218031E330840093308500AB
:1000A00020308600023087000030FF00243091317C
:1000B0000C2180319B308400233085005530FE00B8
:1000C0000030FF009131002180314B30840000303E
:1000D00085001830FE000030FF0091310021803192
:1000E000A0308400003085004430FE000030FF0066
:1000F000913100218031203084000130850045306D
:10010000FE000030FF00913100218031A0308400DA
:10011000013085004F30FE000030FF00913100219A
:100120008031A0308400023085004630FE0000306F
:10013000FF00913100217E1020008B31CC2B20005C
:10014000A601A70105302000A2009E30890BA62839
:10015000A20BA628000020000D1808000A3020007D
:10016000A2003B30890BB228A20BB22820000D1C44
:1001700008000A302000A2003B30890BBD28A20BEA
:10018000BD2820000D18080013302000A200773091
:10019000890BC828A20BC82800322000A8010C3007
:1001A0002802031837292808031DDF2803100D1C17
:1001B00003140030031801302100DA00252906302D
:1001C00020002802031805290D1CF6280130A20082
:1001D0002803FF3A053E890AEE28A235890BED284F
:1001E0002208FF3AA3002308A60525290130A20012
:1001F0002803FF3A053E890AFE28A235890BFD280F
:100200002208A3002308A60425290D1C1729013064
:10021000A2002803FF3A0B3E890A0F29A235890B59
:100220000E292208FF3AA3002308A705252901303B
:10023000A2002803FF3A0B3E890A1F29A235890B29
:100240001E292208A3002308A70413302000A200BF
:100250007730890B2929A20B29290032013020008F
:10026000A2002208A8070C302802031CD328210072
:100270005A082000A200A30122082100BF0020008C
:1002800023082100C0000A30F9000030FA000A30CB
:10029000F0000030F10020002608A200A30122088F
:1002A000F2002308F30088311E2080317108FC0021
:1002B0007008FB0097312B27803179082000A400BB
:1002C000A5012408D5002508D6000A30F900003021
:1002D000FA002608A200A3012208FB002308FC0064
:1002E00097312B27803179082000A400A50124082C
:1002F000D3002508D4000A30F9000030FA000A3093
:10030000F0000030F1002708A200A3012208F2004B
:100310002308F30088311E2080317108FC0070082A
:10032000FB0097312B27803179082000A400A5011C
:100330002408D1002508D2000A30F9000030FA0064
:100340002708A200A3012208FB002308FC00973124
:100350002B27803179082000A400A5012408CF00B4
:100360002508D00001302100D3000030D400410323
:100370004204031D0800C101C2010030F000F10079
:1003800020005508A2002208F2009231FD2280319F
:100390001B302000A3006230A2002B30890BCE2935
:1003A000A20BCE29A30BCE290130F0000030F100C2
:1003B00020005308A2002208F2009231FD22803171
:1003C0001B302000A3006230A2002B30890BE629ED
:1003D000A20BE629A30BE6290030F000F1009031D2
:1003E000DC2080312000A200A30122082100B900F6
:1003F000200023082100BA001B302000A300623037
:10040000A2002B30890B022AA20B022AA30B022A7C
:100410000130F0000030F1009031DC20803120000C
:10042000A200A30122082100B70020002308210018
:10043000B8001B302000A3006230A2002B30890BD3
:100440001F2AA20B1F2AA30B1F2A563090316B20A4
:1004500080311B302000A3006230A2002B30890BBA
:100460002F2AA20B2F2AA30B2F2A21003A08BE0005
:100470003908BD003808BC003708BB00080021005F
:1004800053035404031D08003F084004031D7E2A43
:100490003E0820005606031D512A21003D08200079
:1004A0005506031D7E2A21003C0820005406031D2A
:1004B0005D2A21003B0820005306031D7E2A5108B7
:1004C0005204031D7E2A08304F065004031D7E2A65
:1004D0005A08031D6D2A01306E2A0030BA003A080E
:1004E000DA005A03031D762A0130772A0030BA0059
:1004F0003A082100E200D301D401080021003F089E
:100500004004031DC02A3E0820005606031D8C2A05
:1005100021003D0820005506031DC02A21003C088B
:1005200020005406031D982A21003B082000530692
:10053000031DC02A51085204031DC02A09304F066A
:100540005004031DC02A5908031DA82A0130A92AF6
:100550000030BA003A08D9005903031DB42A793093
:100560009031BB208231BC2A7A309031BB202000F0
:1005700018109810181198112100D301D401080007
:1005800021003F084004031DD42B3E0820005606DE
:10059000031DCE2A21003D0820005506031DD42B43
:1005A00021003C0820005406031DDA2A21003B08E4
:1005B00020005306031DD42BBD0104303D02031857
:1005C0002C2B0930BA003A08AA003D0891319C2131
:1005D0008231203E2000BB003B08BC003C08053EA9
:1005E000860002308700403FBA00413FBB005208FE
:1005F0003B06031DFD2A51083A06031D232B3C0828
:10060000073E860002308700403FBA00413FBB00F2
:1006100050083B06031D0E2B4F083A06031D232BE3
:100620003C08043E8600023087000108031D232B8E
:100630003D08BA003A08B4003C0896317226210001
:10064000D301D401080001302000BA003A08BD07E8
:1006500004303D02031CE12ABE0102303E020318B1
:10066000722B3E0EF0393E070B3ECD3E8600013028
:1006700087000108BA00BB0152083B06031D422B4C
:1006800051083A06031D692B3E0EF0393E070C3E19
:10069000CD3E8600013087000108BA00BB0150083A
:1006A0003B06031D552B4F083A06031D692B3E0ED2
:1006B000F0393E07CD3E8D31792582319231952238
:1006C00020003E08BA003A08E5002100D301D40119
:1006D000080001302000BA003A08BE0702303E028E
:1006E000031C312BE51BD42B6508803A7E3E031892
:1006F000D42B650EF03965070D3ECD3E86000130E6
:1007000087000108BA00BB0152083B06031D8A2B73
:1007100051083A06031DA22B650EF03965070E3EFF
:10072000CD3E8600013087000108BA00BB015008A9
:100730003B06031D9D2B4F083A06031DA22BAB0160
:10074000AB0ACB2B2000650EF03965070F3ECD3E7E
:100750008600013087000108BA00BB0152083B0641
:10076000031DB42B51083A06031DD42B650EF03936
:100770006507103ECD3E8600013087000108BA00B3
:10078000BB0150083B06031DC72B4F083A06031D4B
:10079000D42BAB01AB03650EF0396507CD3E883134
:1007A000C0208231923195222100D301D40108006A
:1007B0002000B60036353E3E860001308700360800
:1007C000483E8400013085000008800AB0000130F6
:1007D000B035890BE82B0630B1003108AA00360885
:1007E00091319C218331203E20003007B200320835
:1007F000840001308500403F803F413F813F360803
:10080000483E86000130870003300102031C0E2C95
:100810003608483E86000130870081010630B0006E
:100820003008AA00360891319C218331023E203ED7
:10083000860001308700403F2000B100413FB200F8
:100840000630B3003308AA00360891319C21833169
:10085000203E860001308700403F2000B400413F29
:10086000B50032083502031D372C31083402031C51
:10087000C52C0630B0003008AA00360891319C2102
:100880008331043E203E860001308700403F200037
:10089000B100413FB2000630B3003308AA00360869
:1008A00091319C218331023E203E86000130870039
:1008B000403F2000B400413FB50032083502031D1F
:1008C000632C31083402031C772C0630B00030084A
:1008D000AA00360891319C21023E203E860001305C
:1008E0008700403F2000AE00413FAF0008000630C7
:1008F000B0003008AA00360891319C218331043EB3
:10090000203E860001308700403F2000B100413F7B
:10091000B2000630B3003308AA00360891319C219A
:100920008331203E860001308700403F2000B40024
:10093000413FB50032083502031DA02C31083402B6
:10094000031CB42C0630B0003008AA0036089131E0
:100950009C21043E203E860001308700403F20005D
:10096000AE00413FAF0008000630B0003008AA00DA
:10097000360891319C21203E860001308700403F9F
:100980002000AE00413FAF0008000630B000300844
:10099000AA00360891319C218331043E203E860016
:1009A00001308700403F2000B100413FB2000630D7
:1009B000B3003308AA00360891319C218331203ED0
:1009C000860001308700403F2000B400413FB50061
:1009D00032083502031DEE2C31083402031C012DB0
:1009E0000630B0003008AA00360891319C21203E24
:1009F000860001308700403F2000AE00413FAF003D
:100A000008000630B0003008AA00360891319C2159
:100A10008331043E203E860001308700403F2000A5
:100A2000B100413FB2000630B3003308AA003608D7
:100A300091319C218331023E203E860001308700A7
:100A4000403F2000B400413FB50032083502031D8D
:100A50002B2D31083402031C3F2D0630B000300826
:100A6000AA00360891319C21043E203E86000130C8
:100A70008700403F2000AE00413FAF000800063035
:100A8000B0003008AA00360891319C21023E203E79
:100A9000860001308700403F2000AE00413FAF009C
:100AA00008009F31E1278531003A03190800903191
:100AB000F42085312000B8003808BE00602E2300E5
:100AC0004D08860087010108031D6D2D2000D80107
:100AD000D80ACD308931F52185319231952208002F
:100AE00023004D08860087010103031D7E2D200091
:100AF000D801D80ACD308931F5218531923195223E
:100B0000080023005E08860087010108031D8F2D61
:100B10002000D801D80ADE308931F52185319231A3
:100B20009522080023005E08860087010103031D4B
:100B3000A02D2000D801D80ADE308931F521853179
:100B400092319522080020003E08D03EB8003808B7
:100B5000BB00D801D80A0730B8003808AA003B0803
:100B600091319C218531A03E2000B9003908BD009B
:100B70003B08B8003808B2003D089631EB268531B5
:100B800092319522080020003E08D03EB800380877
:100B9000BC00D801D80A0730B8003808AA003C08C1
:100BA00091319C218531A03E2000B9003908BD005B
:100BB0003C08B8003808B2003D089631EB26853174
:100BC0009231952208002000BF0104303F02031833
:100BD00008000930B8003808AA003F0891319C216C
:100BE0008531013E203E860002308700010820004A
:100BF0003E0603190D2E0930B8003808AA003F0838
:100C000091319C218531023E203E860002308700D2
:100C1000010820003E06031D5A2E3E0896313E264E
:100C2000853109302000B8003808AA003F0891310A
:100C30009C218531013E203E86000230870001085C
:100C400020003E06031D262E0130272E0030B9005D
:100C50000930BA003A08AA003F0891319C21853139
:100C6000033E203E860002308700200039088100C4
:100C70000930B8003808AA003F0891319C2185311D
:100C8000033E203E86000230870001082000B900A4
:100C90003908AE000930BA003A08AA003F0891317D
:100CA0009C218531203E8600023087000108953165
:100CB0004F25080001302000B8003808BF07E52D97
:100CC0003E08303A0319A32D013A0319A32D033A24
:100CD0000319A32D013A0319A32D073A0319A32DD4
:100CE000013A0319C32D033A0319C32D013A03191D
:100CF000C32D0F3A0319C32D013A0319C32D483AE6
:100D000003195F2D033A0319702D013A0319812D40
:100D1000073A0319922DE32D08002000BA01BB0108
:100D2000BC0105303C020318DB2E3C353E3E8600FC
:100D3000013087005C08B2000130B235890B9D2E6E
:100D40000630B3003308AA003C0891319C2186315B
:100D5000203E20003207B4003408840001308500B2
:100D6000003FB500013FB600B509B609B50A031941
:100D7000B60A403F3507AE00413F363DAF009131E6
:100D80005D21863120002F08B9002E08B8003908EF
:100D90003B02031DCD2E38083A020318D32E390822
:100DA000BB003808BA000130B2003208BC07053079
:100DB0003C02031C952E00303B02653003193A02B9
:100DC000031C372F0130B2005C08B03E860087015B
:100DD0003208810706300102031C0800B7015C08D5
:100DE000E43E860087010108B2003208BD000530EC
:100DF0003D02031CFE2E3D08FC3EFF2E3C30B2009F
:100E00003208BD00B701B70ABE0103303E02031825
:100E10001D2F3E085C060319152F3E08E43E860090
:100E2000870101083D060319B7010130B2003208FD
:100E3000BE0703303E02031C092F37080319F72EA3
:100E40003D08B2005C08E43E86008701320881005C
:100E5000BE0103303E02031808003E08B03E860083
:100E6000870181010130B2003208BE07292F00300E
:100E70003B02323003193A02031808005C08B03E06
:100E8000860087010108031908005C08B03E86004F
:100E900087010130810208002000380886003908E7
:100EA000870049310108803ABA00380886003908BD
:100EB00087004E310103FF3A803ABA0203188B2FA4
:100EC00038088600390887004A31013081074131EE
:100ED0000318810A38088600390887004A31403FE4
:100EE000BA00413FBB0000303B02413003193A02D7
:100EF000031CD12F38088600390887004A3100309A
:100F0000C03FC13F38088600390887000108973183
:100F1000B7278731D12F200038088600390887008D
:100F200049310108BA00BB01BA1BBB03380886006F
:100F3000390887004E313B08803A803C031DA22FC0
:100F40003A0801020318C82F20003808023EBA00F0
:100F50000030393DBB003A0886003B08870002306C
:100F6000810038088600390887004A310030C03FC8
:100F7000C13F38088600390887000108BA003A08DE
:100F8000AA0021006E088A006D080A008731D12F5F
:100F9000200038088600390887004A310030C03FF9
:100FA000C13F200038088600390887004C310130E5
:100FB000810741310318810A380886003908870003
:100FC0004C311600403ABA001600BA04031D08005E
:100FD00038088600390887004C310030C03FC13FD7
:100FE0003908AB003808AA008C31E92408006030C9
:100FF00031008D008F0191010630930092010800AD
:1010020008002000AE01AF012A1C0B282C08AE07F5
:101012002D08AF3D0130AC35AD0D890B0C280130E8
:10102200AB36AA0C890B11282A082B04031D0528AC
:101032002F08AB002E08AA000800F601F11F28288D
:10104200F009F109F00A0319F10AF601F60AF31F91
:101052003328F209F309F20A0319F30A0130F40002
:101062007408F606F701F801700871040319622882
:10107200F501F50AF11B47280130F035F10D890B16
:101082003E280130F4007408F5073B280130F7359B
:10109200F80D890B482871087302031D5228700845
:1010A2007202031C59287008F2027108F33B77148C
:1010B2000130F136F00C890B5A280130F502031D7C
:1010C2004728760803196A28F709F809F70A031965
:1010D200F80A7808F1007708F000080020003208CA
:1010E200860033088700423101080319AD2832080F
:1010F2008600330887004331403FB400413FB500CA
:10110200B536B40CB536B40C320886003308870005
:1011120043313408810241313508813B7F31320845
:10112200860033088700413101089231C72220002E
:101132002E08B4002F08B500B536B40CB536B40C81
:101142003208860033088700433134088107413171
:101152003508813D7F310800320886003308870058
:10116200413101089231C72220003208860033083B
:10117200870043312E08C03F2F08C13F08002000DE
:10118200AC002C0886000130870001088600870128
:101192000103031D08002B08803A7F3E031CDD2853
:1011A2002C08023E86000130870001088600870174
:1011B20005300102031CEA28AB1F08002C08023E7E
:1011C20086000130870001088600870101080319A3
:1011D20008005803031DEF28D80108002C08023E1E
:1011E2008600013087000108860087010108031D7F
:1011F20003292C08093E860001308700010890313E
:10120200BB20883120002C08023E86000130870076
:101212000108860087010108031908002C080A3E0C
:101222008600013087002C08023E840001308500D0
:1012320000088400850100080107FF3E9031BB20B1
:1012420008002000AD002D08031982290130210079
:10125200C3070030C43D103043062730031944064B
:10126200031D4F2920005708031D4F29013021007B
:10127200C1000030C20055309031BB208931293085
:101282002000AC009630AB007F30890B4629AB0BB7
:101292004629AC0B46292000D701D70A98302100F5
:1012A20043063A3003194406031D622920005708F9
:1012B2000319622956309031BB2089312100C101C6
:1012C200C2014E3021004402203003194302031CA4
:1012D20008005908031D080054309031BB208931A1
:1012E2007A302000AC00C130AB008130890B772905
:1012F200AB0B7729AC0B772900322100D901D90A2F
:1013020008002100C301C4012000D7012100D90136
:1013120008002000C2004208BE00BF013E08AA0029
:101322003F08AB001130AC000030AD008831022024
:1013320089319B302000C0002330C1002A084007B9
:10134200C3002B08413DC4004308860044088700BF
:101352004131010892314F228931003A03190800C4
:101362002000430886004408870041310108923179
:10137200E2228931003A0319080020004408B7002C
:101382004308B6009131D221893120004408AB00D4
:101392004308AA008E310B268931200043088600BB
:1013A20044088700423103300102031CE02943084C
:1013B20086004408870001089731B7278931200049
:1013C2004408B9004308B80043088600440887006F
:1013D20042310135653E860001308700413F8A0077
:1013E200403F0A00893108002000AF002F08DE3A92
:1013F200031DFD290130FE290030AA002A08AE0093
:101402002F0886000130870001088600870101034A
:10141200031D1C2A2F08023E8600013087000108A6
:10142200860087010108AA002E08633E8600870114
:101432002A08810008002F08023E8600013087003A
:1014420001088600870101080319332A2F08023E8A
:1014520086000130870001088600870106300102FC
:10146200031C512A2E08633E8600870101080319D6
:10147200422A2E08633E8600870106300102031CC1
:10148200462A0130AC000030502A2E08633E860006
:1014920087010108AA00AB012A08AC002B08AD00A5
:1014A2002F08023E8600013087000108860087016E
:1014B2000108AA002E08633E860087012A088100DF
:1014C2000800200038088600390887004A31403F6A
:1014D200BA00413FBB0000303B02093003193A0217
:1014E20003187B2A3908B3003808B20095317D25EC
:1014F2008A31832A20003908AB003808AA008C31CF
:10150200E9248A31200038088600390887004A31E8
:101512000130810741310318810A380886003908F1
:1015220087004A31403FBA00413FBB0000303B02D6
:10153200103003193A02031C0800380886003908E3
:1015420087004531403FBA00413FBB00423FBC00EB
:10155200433FBD000430BD36BC0CBB0CBA0C890B3A
:10156200AC2A380886003908870043313A08C03F60
:101572003B08C13F3808023EBA000030393DBB008B
:101582003A0886003B08870001308100380886004F
:10159200390887004A310030C03FC13F08002000AF
:1015A20038088600390887004A31403FBA00413F77
:1015B200BB0003303B02E83003193A02031CF92A4C
:1015C200380886003908870001089731B7278A3121
:1015D200200038088600390887000108BA003A0856
:1015E200AA0021006C088A006B080A008A310800F0
:1015F2002000380886003908870049310108803AFE
:10160200BA0038088600390887004E31380884004D
:10161200390885000E310008BB00380884003908FB
:1016220085001031000A162BBB36890B152B3B089F
:10163200FF3A013E0107803ABA020318080038084F
:10164200023EBA000030393DBB003A0886003B0832
:1016520087000130810038088600390887004A3146
:101662000030C03FC13F38088600390887004C313E
:10167200FF30C03FFB30C13F380886003908870081
:101682000108BA003A08AA0021006C088A006B0817
:101692000A008B310800F001200060089531DB253B
:1016A2008B3120005E080319592B21009313C32BA1
:1016B200210093130930FB007B08F0002000600832
:1016C20091318B218B31A03EFC007C08FD007D080E
:1016D2009031D0208B31003A031D742B7D088C3160
:1016E20059248B31782B7D089F31F8278B312000CC
:1016F20060353E3E86000130870022001409FB005F
:101702001509FC00FB0A0319FC0A403F7B07F000A5
:10171200413F7C3DF100913140218B31003071021B
:10172200653003197002031CA62B0930FB007B08ED
:10173200F0002000600891318B218B31083EA03EE1
:101742008600013087000115B52B0930FB007B08AC
:10175200F0002000600891318B218B31083EA03EC1
:10176200860001308700011120005D08031DC32B94
:1017720060353E3E86000130870022001408C03FDB
:101782001508C13F20005D03031DC92BDF010800BE
:101792008E319F2608009131C0218B318B170B1798
:1017A2009F31E6278B3100302000AA00AB00913137
:1017B2004E218B312000C900CA0149082100BD0019
:1017C20020004A082100BE001B302000CA006230FF
:1017D200C9002B30890BEB2BC90BEB2BCA0BEB2B64
:1017E20001302000AA000030AB0091314E218B3134
:1017F2002000C900CA0149082100BB0020004A0894
:101802002100BC001B302000CA006230C9002B300E
:10181200890B092CC90B092CCA0B092C9431CC2435
:101822008B3104309531AC258B312000C900490839
:101832002100EF006F08893122218B3121006F08CE
:101842000319252CDB01DB0A5B03031D472C6F0800
:10185200031D472CDB0120005908031D322C0130E7
:10186200332C0030C9004908D9005903031D3E2C0E
:1018720079309031BB208B31472C7A309031BB20AC
:101882008B312000181098101811981185315125AC
:101892008B3121006203031D522C82313F228B3196
:1018A2000F2C9631AE268B3182313F228B310F2C99
:1018B200F90079088600013087000108F4007408F5
:1018C200F800790890317B208C31003A031D942C6A
:1018D2007908043E8600013087000108F400F50112
:1018E2000930F435F50D890B722C220015087502AA
:1018F200031D7D2C140874020318902C0130F4008F
:101902007908053E860001308700740881071F3080
:101912000102031C080079089231AD2208007908FF
:101922009231AD2208007908043E8600013087001A
:101932000108F400F501F435F50D78353E3E8600D8
:101942000130870022001409F6001509F700F60A93
:101952000319F70A403F7607F000413F773DF10057
:10196200913140218C3175087102031DBA2C740823
:1019720070020318C92CC030F4007908023E8600B8
:101982000130870074088100790891313221080002
:101992007908033E860001308700B8300102031C3B
:1019A200DF2CC030F4007908023E86000130870047
:1019B2007408810079089131322108000830F4005E
:1019C2007908033E86000130870074088107080009
:1019D2008B1F332D8B1320002A0886002B088700CB
:1019E2004531403FAC00413FAD00423FAE00433F76
:1019F200AF000430AF36AE0CAD0CAC0C890BFB2C37
:101A02002A0886002B08870045312C0881024131C3
:101A12002D08813B41312E08813B41312F08813B0A
:101A22007D312A0886002B0887004331403FAC00F5
:101A3200413FAD002C08AE002D08AF00B001B1014E
:101A42002A0886002B08870045312E08810741317C
:101A52002F08813D41313008813D41313108813DBE
:101A62008B17080020002A0886002B0887004531C2
:101A7200403FAC00413FAD00423FAE00433FAF00AC
:101A82000430AF36AE0CAD0CAC0C890B422D2A08DB
:101A920086002B08870045312C08810241312D0830
:101AA200813B41312E08813B41312F08813B7D3101
:101AB2002A0886002B0887004331403FAC00413F93
:101AC200AD002C08AE002D08AF00B001B1012A080C
:101AD20086002B08870045312E08810741312F08E7
:101AE200813D41313008813D41313108813D08005D
:101AF2002000B0003008DE3A031D812D0130822D16
:101B02000030AB002B08AF003008860001308700A0
:101B12000108860087010103031DA92D3008093E33
:101B220086000130870001089031BB202000300878
:101B3200023E860001308700010886008701010805
:101B4200AB002F08633E860087012B088100080046
:101B52003008023E860001308700010886008701B6
:101B620001080319C02D3008023E860001308700AB
:101B720001088600870106300102031CDE2D2F08B2
:101B8200633E8600870101080319CF2D2F08633EAB
:101B92008600870106300102031CD32D0130AD00FF
:101BA2000030DD2D2F08633E860087010108AB005F
:101BB200AC012B08AD002C08AE003008023E8600B6
:101BC200013087000108860087010108AB002F0859
:101BD200633E860087012B0881003008083E86009C
:101BE2000130870001089031BB208D312000300880
:101BF2000A3E8600013087003008023E8400013030
:101C0200850000088400850100080107FF3E90312D
:101C1200BB20080020002A0886002B0887004531D7
:101C2200403FAC00413FAD00423FAE00433FAF00FA
:101C32000430AF36AE0CAD0CAC0C890B1A2EAC09CD
:101C4200AD09AE09AF09AC0A0319AD0A0319AE0A10
:101C52000319AF0A2A0886002B0887004331403F48
:101C6200B000413FB1003008B2003108B300B40106
:101C7200B5013208AC073308AD3D3408AE3D350836
:101C8200AF3D2F08B9002E08B8002D08B7002C0868
:101C9200B6003608AC003708AD003808AE00390887
:101CA200AF002A0886002B0887004F31010A5D2EFB
:101CB200AF37AE0CAD0CAC0C890B592E2F08B90006
:101CC2002E08B8002D08B7002C08B600B91B7E2ECE
:101CD2003908031D762E3808031D762E3708031D9A
:101CE200762E80303602031C7E2E0030B900003082
:101CF200B8000030B7007F30B600B91F922E803096
:101D02003602FF30373BFF30383BFF30393B031898
:101D1200922EFF30B900FF30B800FF30B70080309C
:101D2200B6002A08093EAC0000302B3DAD002C085D
:101D320086002D088700360881000800F90100306E
:101D42008B1B0130F80020006008923139228E315D
:101D5200003A0319BA2E0130F60076082000E00797
:101D620005306006031DA42EE001DF01F901F90A26
:101D7200C22E20006008923123228E31003A0319CC
:101D8200AC2E7908031D08000930F6007608F00031
:101D92002000600891318B218E31A03EF700770838
:101DA200FA007A089031D0208E31003A0319E92ED8
:101DB2007A088600013087000130433F21009D00F0
:101DC2007A088600013087000130423F9C00042FD0
:101DD2007A0890317B208E31003A0319FF2E7A085F
:101DE2008600013087000130423F21009C007A08C2
:101DF2008600013087000130433F032FC0302100AD
:101E02009C00C0309D0020005B08F600760821008F
:101E12009C077A088600013087000130413F9E000E
:101E22007A08043E860001308700013622008D00C8
:101E32007A088600013087000130453F21009B006F
:101E420093172000DF01DF0AF001F00A60089531E4
:101E5200DB258E318B13210013147A08043E860091
:101E6200013087000108F600F7010930F635F70D59
:101E7200890B372F7608900077089100781C432F42
:101E82008B17442F8B132000DE0108002000B301C2
:101E920000308B1B0130B200600892314F228F312B
:101EA200003A0319622F01302000B0003008E00729
:101EB20005306006031D4D2FE001DF01B301B30AB7
:101EC2006A2F20006008923166228F31003A03198E
:101ED200542F20003308031D08000930B0003008D9
:101EE200AA00600891319C218F31A03E2000B100F0
:101EF2003108B4003408913125218F31003A031999
:101F0200952F200034088600013087000130433FBE
:101F120021009D0020003408860001308700013036
:101F2200423F21009C00B42F200034089031B120A0
:101F32008F31003A0319AF2F200034088600013098
:101F420087000130423F21009C00200034088600B7
:101F5200013087000130433F2100B32FC030210000
:101F62009C00C0309D0020005B08B00030082100BA
:101F72009C07200034088600013087000130413F71
:101F820021009E0020003408043E860001308700B4
:101F9200013622008D0020003408860001308700BF
:101FA2000130453F21009B0093172000DF01DF0A2B
:101FB200AA01AA0A60089431F6248F318B132100FA
:101FC200131420003408043E860001308700010803
:101FD200B000B1010930B035B10D890BEC2F3008DA
:101FE2002100900020003108210091002000321CC5
:101FF200FC2F8B17FD2F8B132000DE01080000340D
:10200200033400340034003400340034003400342B
:10201200003400340034003400341E3401340534FA
:10202200013401340034003400340034003400340C
:102032000034003400340034003400341E340134DF
:1020420005340234043400340034003400340034E3
:1020520000340034003400340034003400341E34C0
:1020620001340534033400340034003400340034C5
:1020720000340034003400340034003400340034BE
:102082001E34013405340434023400340034003484
:10209200003400340034003400340034003400349E
:1020A20000341E34013404349431F92C9431FF2C61
:1020B2009531052D95310B2D9531112D9531DD2D54
:1020C2009531E42D9531EB2D9531F22D9531F92D88
:1020D600F0002E000F1E6C28700822009A000800DF
:1020E6002F0096019701980199019A019B0108001A
:1020F600F0007008083E860001308700010E0139A5
:1021060008002000AA002A08083E86000130870041
:102116008110080020002B082200EE0020002A086B
:102126002200ED00080020002B082400C500200036
:102136002A082400C400080020002B082200EC0016
:1021460020002A082200EB00080020002B082400AB
:10215600C70020002A082400C60008002000AA00A4
:102166002A08083E860001308700010E0139080062
:102176002000AA002E000F1EBD2820002A082200DB
:102186009A00080000341E343C340534003403340D
:1021960000340234003402340034F1007108083E81
:1021A600860001308700010CF000F00C700C01393C
:1021B6000800710830009B0070089A001E171E1454
:1021C6000000000030001C08080093317A2390318B
:1021D60093315823903192310E2290319331192345
:1021E60008002E008F1EF4282100E30122009D1C0A
:1021F600FE281D121D161908080064008001013111
:102206000130FE020030FF3B7F087E0403190034D4
:102216000129FE0012001E000130FE020030FF3BC5
:102226007F087E04031900340D292E008D1022002C
:102236006D086E04031908006E088A006D080A000E
:10224600913108002000AB002B08083E86000130C3
:102256008700010CAA00AA0C2A0C01390800F0001C
:102266007008083E86000130870081157008083E18
:1022760086000130870001120800F11F080070096E
:10228600F2007109F300F20A0319F30A7208F0006A
:102296007308F100080020002B0830009B00200086
:1022A6002A0830009A001E171E1400000000300095
:1022B6001C0808002000AF1F08002E09B0002F09D7
:1022C600B100B00A0319B10A3008AE003108AF00F8
:1022D60008009431A2249131003A031D742900307C
:1022E60008009F31EC27913196310B26013008000A
:1022F6002000C60105304602031808004608893149
:102306008A21913101302000C5004508C6077D2984
:10231600F200F301721C93297008F1007108F307AB
:102326000310F00D0310F20C7208031D8D297308BB
:1023360008002000AD00AC012D1CA5292A08AB0021
:102346002B08AC070310AA0D0310AD0C2D08031DB6
:102356009F292C08080001302000AA002A08DC0763
:1023660003305C020318DC015C08E43E860087014A
:102376000108AA002A08DB00080090317320913179
:102386009531222591318731F727913193319C235D
:1023960091319431072491319031E82008008B1F48
:1023A600DE298B1320003708B3003608B2008831C7
:1023B6006F208B17080020003708B3003608B200DC
:1023C60088316F2008002000AF0005302F02031867
:1023D60008000930AE002E08AA002F0891319C2172
:1023E600083EA03E860001308700811108002000CB
:1023F600AF0005302F02031808000930AE002E0882
:10240600AA002F0891319C21083EA03E860001308B
:10241600870001140800A0302000AB002B08AC0098
:10242600C430AB002C082B02031C08002C0890318A
:102436008420923109302000AB002B08AC07132A08
:10244600F500053075020318372A0930F4007408C0
:10245600F000750891318B21083EA03E86000130C0
:10246600870001080139080000300800F500053032
:10247600750203184D2A0930F4007408F000750837
:1024860091318B21083EA03E860001308700010C69
:1024960001390800003008002000AF0005302F0287
:1024A6000318642A0930AE002E08AA002F089131BD
:1024B6009C21083EA03E860001308700010C0139B0
:1024C6000800003008002000AF0005302F02031876
:1024D6007B2A0930AE002E08AA002F0891319C21D4
:1024E600083EA03E86000130870001080139080039
:1024F600003008002000B10031089131FA219231F4
:10250600200031089131E621923109302000B000D7
:102516003008AA00310891319C219231A03E9031B9
:10252600842008002000B10102303102031808009F
:102536000730AE002E08AA00310891319C21923155
:10254600573E2000AF002F08B0000130AE002E0825
:10255600B107972AF1007108083E8600013087000E
:1025660001160430F0007108033E86000130870032
:1025760070088100C030F0007108023E860001300C
:1025860087007008810008002000B1000530310284
:102596000318DF2A0930B0003008AA00310891314B
:1025A6009C21063EA03E860001308700403F200069
:1025B600AE00413FAF000800AE01AF0108002000A9
:1025C600B000053030020318FB2A0930AE002E0891
:1025D600AA00300891319C21083EA03E86000130B9
:1025E6008700010C2000AF00AF0C2F0C013908004A
:1025F6000030080000308B1B0130F30071083000FA
:102606009B0070089A0072089C001E171E158B13FB
:1026160055309F00AA309F009E149E18102B1E1145
:10262600730C031C8B1303188B1708009331382384
:10263600933100308B1B01302000AC008B135530DA
:102646003D008F00AA308F000F1024303E00950009
:1026560055303D008F00AA308F000F1420002C1C2F
:10266600362B8B1708008B1308000F3021009800BB
:102676009A019B0122008E018F0190019101920126
:1026860093014130210094008B3095000F30960065
:10269600C43093002E008D109714DC302000AA0061
:1026A6001F30AB0090318D2008009B308600233010
:1026B6008700003084009030850055302000B70038
:1026C600370803196A2B12001E00B70B662B200071
:1026D600B801053038020318080038089731B727C3
:1026E600933101302000B7003708B8076C2BA030B3
:1026F60086000130870000308400983085002D3038
:102706002000B200320803198C2B12001E00B20BF7
:10271600882B2000B3010530330203180800330864
:1027260092317D22933101302000B2003208B30786
:102736008E2B22008E018F0190019101920193014F
:102746008D0121009E019B019C019401950196013A
:1027560097019A0199010F309800843093006430F4
:102766009D002E008D10971401302000AA0008301D
:10277600AB0090318D2008002000B3000930B00076
:102786003008AA00330891319C219331033E203E44
:1027960086000230870001082000B1003108AE0033
:1027A6000930B2003208AA00330891319C219331D6
:1027B600203E860002308700010895314F2508002B
:1027C6000334613462340034003401340034053497
:1027D600003401346334643400340034013400348A
:1027E6000034003402346534663400340034003476
:1027F600003405340034003467346834003400345F
:102806000034003401340034083022009F00903038
:102816009D0024309E0040309B0003309C00003019
:102826002000AA000030AB0090319F209431003088
:102836002000AA000030AB009031A820943100306F
:102846002000AA000030AB00903196202100E30161
:1028560008002000B9003908860001308700010809
:102866008331D823943120002F08B8002E08B700F2
:102876008B1F492C8B133908063E860001308700D2
:102886003708C03F3808C13F8B1708003908063E95
:102896008600013087003708C03F3808C13F08006E
:1028A60020003008860031088700423102300106D8
:1028B600031D080030088600310887004A310130C0
:1028C600810741310318810A3008860031088700E4
:1028D6004A3116000104031D08003008860031083D
:1028E60087004A31FF30C03FFF30C13F080020005B
:1028F600B80105303802031808003808B400B501DD
:102906003408AA003508AB001130AC000030AD0029
:102916008831022094319B302000B6002330B70066
:102926002A083607B0002B08373DB10094315324EE
:10293600943101302000B4003408B8077C2C200004
:10294600B601053036020318CA2C360892314F22DA
:102956009431003A031DC12C2000360892316622BC
:102966009431003A0319C12C9F31CF279431003A94
:10297600031DBF2C8F31472700300800013020008F
:10298600B5003508B60705303602031CA82C013001
:1029960008002000C80161080319D62C9031E820F0
:1029A60094312000E101E201E20A62080319F42CE5
:1029B60091316C219431003A031DE32C003008005C
:1029C60091317B2194319F31D82794312000C70063
:1029D6004708E20092310E2294319F31D22701300E
:1029E6000800003008002000AB00172D2A0C031C3D
:1029F60011100318111408002A0C031C9110031857
:102A0600911408002A0C031C111103181115080053
:102A16002A0C031C91110318911508002A0C031C9B
:102A260011120318111608002B0884000530040241
:102A36000318080090310435553E82000800200036
:102A4600960197019801C0309100FF309200B03096
:102A560093007F303E00CE00FE30C300C030B80089
:102A6600E501C401B901CF01BA01C501D001FF30AA
:102A7600BB00FF30C600FF30D100FF30BC00FF3086
:102A8600C700FF30D2000830E80017303D00CB0009
:102A960010303E00A60008002000AF006E2D2E0864
:102AA6000319572D18140800181008002E080319CA
:102AB6005E2D98140800981008002E080319652D3D
:102AC60018150800181108002E0803196C2D981502
:102AD6000800981108002F08003A0319672D013ADB
:102AE6000319592D033A0319602D013A0319522D82
:102AF6007C2D08002000320886003308870041310B
:102B060001089231C722953120002E08B4002F0803
:102B1600B500B601B7013208860033088700453193
:102B26003408C03F3508C13F3608C23F3708C33FA7
:102B3600320886003308870045310430813541313B
:102B4600810D4131810D4131810D7D31890BA12DE1
:102B560008002000B600053036020318D92D3608C5
:102B6600B000B1013008AA003108AB001130AC004A
:102B76000030AD0088310220953120002A08023E3F
:102B8600B20000302B3DB3009B30B4002330B500BB
:102B96003208340786003308353D870002300106C7
:102BA600031DD72D01300800003008000030080052
:102BB600F100002E700C2000031C111003181114D4
:102BC6000800700C2000031C9110031891140800D3
:102BD600700C2000031C1111031811150800700C4D
:102BE6002000031C9111031891150800700C200099
:102BF600031C111203181116080071088400053011
:102C0600040203180800903104355F3E8200080074
:102C16002000BB0105303B02031808000930BA004A
:102C26003A08AA003B0891319C219631083EA03E05
:102C3600860001308700811C382E09302000BA003A
:102C46003A08AA003B0891319C219631A03E943166
:102C56002C24963120003B08BA003A08AA0021002D
:102C66006A088A0069080A00963101302000BA0015
:102C76003A08BB070D2E2000AA00512E1814080092
:102C86001810080098140800981008001815080075
:102C96001811080098150800981108002A08613ACA
:102CA6000319412E033A0319432E013A0319452EFF
:102CB600073A0319472E013A0319492E033A031915
:102CC6004B2E013A03194D2E0F3A03194F2E113A86
:102CD6000319712E033A0319712E712E0800200074
:102CE600B9003908033E8600023087000108031D3B
:102CF6007E2E01307F2E0030B5003908033E860057
:102D060002308700350881003908033E860002300C
:102D160087000108031D922E3908023E932E390AB8
:102D26008600023087000108B500B6013508B700F5
:102D36003608B80037089031BB2096312000340899
:102D46009331BF2320003908043E860002308700F5
:102D56008101810A08002000BD0104303D020318EC
:102D660008000930BA003A08AA003D0891319C21B2
:102D76009631203E2000BB003B08BC003C08860084
:102D86000230870001089531AC259631003A0319C7
:102D9600DE2E20003C08043E860002308700010833
:102DA600031DE52E3D08BA003A08B4003C089631EA
:102DB60072269631E52E20003C08043E860002303D
:102DC6008700810101302000BA003A08BD07B02E05
:102DD6002000B6000530AA000030AB003208B30070
:102DE600B4013308AC003408AD0097317127963131
:102DF60020002A08013EB5003608023E8600023051
:102E06008700010886008701350881003608023EE2
:102E1600860002308700010823004F060319152F8C
:102E2600DE30162FCD302000B3003308B700370848
:102E36008600013087000108860087010108031D0E
:102E4600282F37088931F5219631923195220800CD
:102E56002000A101FC1F362FFB09FC09FB0A031900
:102E6600FC0AA101A10AFA1F3D2FF909FA09F90A7C
:102E76000319FA0A79087A040319642FA001A00A33
:102E8600FA1B4F2F0130F935FA0D890B462F013009
:102E9600FD007D08A007432F7A087C02031D552FED
:102EA60079087B02031C5B2F7908FB027A08FC3B3E
:102EB6000130FA36F90C890B5C2F0130A002031D94
:102EC6004F2F210803196C2FFB09FC09FB0A031974
:102ED600FC0A7C08FA007B08F90008002000B00113
:102EE600AD1F7C2FAC09AD09AC0A0319AD0AB001C0
:102EF600B00AAB1F832FAA09AB09AA0A0319AB0AAA
:102F06002A082B040319AA2FAF01AF0AAB1B952F72
:102F16000130AA35AB0D890B8C2F0130AE002E087F
:102F2600AF07892F2B082D02031D9B2F2A082C0281
:102F3600031CA12F2A08AC022B08AD3B0130AB368F
:102F4600AA0C890BA22F0130AF02031D952F300862
:102F56000319B22FAC09AD09AC0A0319AD0A2D0845
:102F6600AB002C08AA0008002000B4003408B0000A
:102F7600B1013008AA003108AB001130AC000030B6
:102F8600AD008831022097319B302000B2002330FB
:102F9600B3002A083207B5002B08333DB6003508C2
:102FA600860036088700423181013508053EB000AB
:102FB6000030363DB1003008860031088700003009
:102FC600C03FC13FC23FC33F350886003608870071
:102FD6004A310030C03FC13F3508860036088700B9
:102FE6004C310030C03FC13F3508860036088700A7
:102FF600413101089131E621080000340034C03423
:1030060040342034003400340034003401340134B8
:10301600C0344034203400340034003400340234E8
:103026000234C034403420340034003400340034D8
:1030360003340334C03440342034003400340034C4
:10304600003404340434C0344034203400340034B2
:1030560000340034003400348234DC348C34A03440
:08306600A2344034D834F034E8
:103F9E0020005F08080094317A24080001340134AF
:103FAE00FF342000AA012A0808002E008D108B3144
:103FBE004C2308002E000F0E890C013908000B103F
:103FCE002E000C1016148B17080086318D269F318B
:103FDE009131AE21080062340A344C340734D034A7
:103FEE000A34F0007008083E860001308700811404
:023FFE000800B9
:020000040001F9
:0A000E00EC3FBF379F3FFF3FFF3F6D
:00000001FF
